:020000040800F2
:10000000D80D0020D9040008AD020008AF02000896
:10001000B3020008B7020008BB020008000000009D
:10002000000000000000000000000000BF02000807
:10003000C102000800000000C3020008C502000859
:10004000F3040008F3040008F3040008F3040008B4
:10005000F3040008F3040008F3040008F3040008A4
:10006000F3040008F3040008F3040008F304000894
:10007000F3040008F3040008F3040008F304000884
:10008000F3040008F3040008F3040008F304000874
:10009000F3040008F3040008F3040008F304000864
:1000A000F3040008F3040008F3040008F304000854
:1000B000F3040008F3040008F3040008F304000844
:1000C000F3040008F3040008F3040008F304000834
:1000D000F3040008F91A0008F3040008F304000808
:1000E0000D210008F3040008F3040008F3040008DD
:1000F000F3040008F3040008F3040008F304000804
:10010000F3040008F3040008F3040008F3040008F3
:10011000F3040008F3040008F3040008F3040008E3
:10012000F3040008F3040008F3040008F3040008D3
:10013000F3040008F3040008F3040008F3040008C3
:10014000F3040008F3040008F3040008F3040008B3
:10015000F3040008F3040008CF1A0008F3040008B1
:10016000F3040008F3040008F3040008F304000893
:10017000F3040008F3040008F3040008F304000883
:10018000F3040008F304000800F002F800F061F83E
:100190000AA090E8000C82448344AAF10107DA45E2
:1001A00001D100F056F8AFF2090EBAE80F0013F0D3
:1001B000010F18BFFB1A43F001031847FCB1000000
:1001C0001CB200000A444FF0000C10F8013B13F081
:1001D000070408BF10F8014B1D1108BF10F8015BA0
:1001E000641E05D010F8016B641E01F8016BF9D193
:1001F00013F0080F1EBF10F8014BAD1C0C1B09D1EA
:100200006D1E58BF01F801CBFAD505E014F8016B5B
:1002100001F8016B6D1EF9D59142D6D370470000ED
:100220000023002400250026103A28BF78C1FBD8FF
:10023000520728BF30C148BF0B607047642907F0E0
:10024000D580002070471FB50AF009F91FBD10B511
:1002500010BD07F011FB1146FFF7F5FF00F008F89D
:1002600007F02FFB03B4FFF7F2FF03BC01F08EFB96
:10027000A82001F009FB0B4801F097FB01F086FC78
:10028000642001F063FB01F0BDFC02F041FB02F0D1
:1002900053FB01F03DFC03E03B21034801F006FC69
:1002A000FAE7000080841E000C040020704700BFA5
:1002B000FEE700BFFEE700BFFEE700BFFEE77047B6
:1002C00070477047704700000CB500200190009007
:1002D0007648006840F480307449086000BF734875
:1002E000006800F4003000900198401C01900098D4
:1002F00018B90198B0F5A04FF1D16C48006800F42E
:10030000003010B10120009001E000200090009822
:10031000012846D165484030006840F0805063496C
:10032000403108606248006840F44040604908601D
:100330005E48083000685D4908310860084600687A
:1003400040F4004008600846006840F4A05008608F
:100350005848091F0860081F006840F08070091F96
:10036000086000BF5148006800F000700028F9D014
:1003700040F20570504908604C480830006820F091
:1003800003004A49083108600846006840F002004E
:10039000086000BF45480830006800F00C000828DD
:1003A000F8D10CBD10B54548006840F470004349D1
:1003B00008603E48006840F001003C4908600020A9
:1003C0003A4908310860394800683D4908403749D2
:1003D00008603C48091D0860081F006820F4802060
:1003E000091F0860002031490C310860FFF76CFFDD
:1003F0004FF0006031498039086010BD70B50020B1
:100400000022022300240221284D08352D6805F022
:100410000C0020B1042806D0082834D107E02A4D6A
:100420002A4E356033E02A4D284E35602FE01F4DAF
:100430002D1D2D68C5F380541C4D2D1D2D6805F014
:100440003F0154B1224DB5FBF1F5184E361D36680B
:10045000C6F3881605FB06F209E01B4DB5FBF1F566
:10046000124E361D3668C6F3881605FB06F20F4D90
:100470002D1D2D68C5F301456D1C6B00B2FBF3F516
:10048000124E356003E0104D104E356000BF00BFC6
:10049000064D08352D68C5F303150E4E705D0B4DE6
:1004A0002D68C540094E356070BD0000003802401F
:1004B0000070004008544007003C024088ED00E016
:1004C000FFFFF6FE103000240024F4008800002016
:1004D00000127A008C000020094880470948004734
:1004E000FEE7FEE7FEE7FEE7FEE7FEE7FEE7FEE7E4
:1004F000FEE7FEE704480549054A064B7047000041
:10050000A503000889010008D8070020D80D0020A5
:10051000D8090020D809002032490143324A11602D
:10052000704770B5002100230F22C4781CB32E4CF5
:10053000246804F4E064C4F5E064C4F30721C1F165
:100540000404E3B20A4144789C40E1B28478144048
:1005500021430C07210E254C05786155047804F0E1
:100560001F050124AC4005786D11AD0005F1E025B3
:10057000C5F8004109E0047804F01F050124AC40EF
:100580001B4D0678761145F8264070BD194A0A4081
:100590000243154B1B1F1A60704739B1124A121DD6
:1005A00012680243104B1B1D1A6006E00E4A121D12
:1005B000126882430C4B1B1D1A607047042808D137
:1005C0004FF0E021096941F004014FF0E022116190
:1005D00007E04FF0E021096921F004014FF0E0222B
:1005E000116170470000FA050CED00E000E400E046
:1005F00080E100E080FFFF1F016821F00101016040
:100600000021016041608160C1600161212141617F
:10061000DB49884204D13D21D94A103A91608CE0EF
:10062000D7491831884205D14FF47461D44A103A41
:10063000916082E0D2493031884205D14FF4741183
:10064000CF4A103A916078E0CD494831884205D1CF
:100650004FF07461CA4A103A91606EE0C849603147
:10066000884204D1C749C64A103AD16065E0C449FE
:100670007831884204D1C449C14A103AD1605CE063
:10068000BF499031884204D1C049BD4A103AD16077
:1006900053E0BB49A831884205D14FF03D51B84ADB
:1006A000103AD16049E0BA49884204D13D21B84AA4
:1006B000083A116041E0B6491831884205D14FF43B
:1006C0007461B34A083A116037E0B1493031884269
:1006D00005D14FF47411AE4A083A11602DE0AC49CF
:1006E0004831884205D14FF07461A94A083A116037
:1006F00023E0A7496031884204D1A249A44A121FCD
:1007000011601AE0A2497831884204D19E49A04A7A
:10071000121F116011E09E499031884204D19B491B
:100720009B4A121F116008E09949A831884204D100
:100730004FF03D51964A121F1160704710B50022CC
:100740000268944B1A40CC680B6823434C692343DE
:100750008C692343CC6923430C6A23434C6A2343AB
:100760008C6A23434C6B23438C6B23431A430260F4
:10077000426922F00702D1E90B3423431A43426154
:100780000B6943604B6883608B68C36010BD0021B8
:10079000016041608160C160016141618161C1614D
:1007A000016241628162C16201634163816370479A
:1007B00021B1026842F00102026003E0026822F007
:1007C00001020260704721B1026842F400420260F7
:1007D00003E0026822F400420260704721B102681F
:1007E00042F02002026003E0026822F02002026070
:1007F0007047416070470146486880B2704722B137
:10080000036843F40023036003E0036823F4002338
:1008100003600161704721B1026842F480220260E6
:1008200003E0026822F48022026070470AB101618D
:1008300000E0C1607047014600200A6802F400220F
:100840000AB1012000E000207047014600200A683C
:1008500002F001020AB1012000E0002070470146C9
:1008600000204A6902F03800704730B503460A4656
:1008700000200024464DAB4202D24149103901E02C
:100880004349103902F000550DB14C6800E00C6886
:10089000414D2C4004EA02050DB1012000E000208A
:1008A00030BD02463A4B9A4202D23548103801E038
:1008B0003748103801F000531BB1374B0B40C36071
:1008C00002E0354B0B408360704710B501F08003A8
:1008D0004BB122B1436943F08003436103E04369B4
:1008E00023F08003436180290BD02AB1036801F013
:1008F0001E042343036004E0036801F01E04A343C5
:10090000036010BD70B50246002000240025204E73
:10091000B24202D21A4B103B01E01D4B103B1F4E5E
:100920000E4036B11E2606EAD124166806EA0405F2
:1009300002E0566906F0800501F000560EB15C68D1
:1009400000E01C68144E344004EA010616B10DB1F3
:10095000012000E0002070BD02460D4B9A4202D2F9
:100960000748103801E00A48103801F000531BB165
:10097000094B0B40C36002E0074B0B40836070479C
:10098000106002403D000020400F002000003D208C
:10099000106402403F801CF07D0F7D0F3C0F3C0F28
:1009A000002041490860091D0860091D0860091DF3
:1009B00008603E483C4914310860704700213A49BC
:1009C0008279002A3AD00A46126803689A430B4695
:1009D0001A600A1D126803689A430B1D1A60027997
:1009E00011440A6803681A430A602F4A08321268E1
:1009F00003689A432C4B08331A601A1D1268036867
:100A00009A43294B0C331A604279102A0ED11A1FCF
:100A1000126803681A43244B08331A601A1D1268BF
:100A200003681A43204B0C331A600DE01E494279CB
:100A300011440A6803681A430A6005E00279114408
:100A40000A6803689A430A607047002101600171D7
:100A50000C214171002181717047134910310968DF
:100A60000143114A103211607047014600200E4ABE
:100A7000143212680A400AB1012000E000207047D9
:100A8000094914310860704701460020064A1432B3
:100A900012680A400AB1012000E0002070470249B4
:100AA0001431086070470000003C0140FFFF7F00E8
:100AB00010B504469848844208D10121084600F048
:100AC00086FB0021012000F082FB76E093488442FF
:100AD00008D10121022000F07AFB0021022000F061
:100AE00076FB6AE08E48844208D10121042000F0A0
:100AF0006EFB0021042000F06AFB5EE0894884421E
:100B000008D10121082000F062FB0021082000F03C
:100B10005EFB52E08448844208D10121102000F09D
:100B200056FB0021102000F052FB46E07F48844233
:100B300008D10121202000F04AFB0021202000F0F4
:100B400046FB3AE07A48844208D10121402000F077
:100B50003EFB0021402000F03AFB2EE07548844225
:100B600008D10121802000F032FB0021802000F01C
:100B70002EFB22E07048844208D10121801500F04C
:100B800026FB0021A01500F022FB16E06B488442F2
:100B900008D10121401500F01AFB0021601500F07A
:100BA00016FB0AE06648844207D10121001500F0D7
:100BB0000EFB0021201500F00AFB10BDF0B50A461F
:100BC00000210023002400BF3DE0012505FA01F3C8
:100BD000156805EA03049C4234D105684F000326DA
:100BE000BE40B543056015794E00B54006683543F3
:100BF00005601579012D02D01579022D16D1856871
:100C00004F000326BE40B543856055794E00B54080
:100C1000866835438560456801268E40B54345604A
:100C2000456896798E40B6B235434560C5684F0039
:100C30000326BE40B543C560D5794E00B540C668B1
:100C40003543C560491C1029BFD3F0BD4FF6FF7175
:100C500001600021017141718171C171704708B556
:100C60004FF480320092009A0A430092009AC261C7
:100C7000C161009AC261C2690092C269009208BD56
:100C80000246002013690B400BB1012000E0002058
:100C900070470146086980B27047024600205369D8
:100CA0000B400BB1012000E000207047014648696D
:100CB00080B2704701837047418370470AB1018356
:100CC00000E0418370474161704742694A40426198
:100CD0007047F0B5002300244D07ED0E02FA05F32E
:100CE000CE1000F1200555F826504E07F70E0F26BE
:100CF000BE40B543CF1000F1200646F82750CE1075
:100D000000F1200555F8265045EA0304CE1000F105
:100D1000200545F82640F0BD0000024000040240D6
:100D200000080240000C0240001002400014024083
:100D300000180240001C0240002002400024024033
:100D400000280240F948006840F00100F7490860B7
:100D50000020F64908310860F4480068F44908406A
:100D6000F2490860F348091D0860F348EF498431EF
:100D70000860F0481038091D0860EC48006820F44D
:100D80008020EA4908600020E8490C310860E74902
:100D90008C31086070470021E44A921C11701146A2
:100DA0000870704710B501460022002300204A1148
:100DB000012A02D1DD4C236808E0022A03D1DB4C72
:100DC0007034236802E0D94C7434236801F01F02A8
:100DD000012494401C400CB1012000E0002010BD13
:100DE00038B5002000900024002500BF3120FFF717
:100DF000D9FF05460098401C00900098B0F5A04F20
:100E000001D0002DF2D03120FFF7CCFF08B1012432
:100E100000E00024204638BD01460020C34A106887
:100E200020F0F80040EAC10010607047C349086034
:100E300070470021BD4A703211701170012802D034
:100E400004280AD104E00121B84A7032117005E08B
:100E50000521B64A7032117000E000BF00BF704734
:100E6000B7490860704770B5049C41EA82150126B5
:100E7000C6EB530645EA0645054345EA0465AB4E15
:100E8000361D356070BDAD4908667047820142EA83
:100E90000172A64B84331A607047A8498866704770
:100EA00010B5830143EA016343EA02739F4C88341F
:100EB000236010BDA14908677047A049C864704706
:100EC00002460020994B0833186820F0EC6042EA93
:100ED00001031843954B0833186070470246002001
:100EE000924B0833186820F0784042EA0103184317
:100EF0008E4B083318607047014600208B4A083239
:100F0000106820F0030008431060704787480830DD
:100F1000006800F00C00704701460020834A083248
:100F2000106820F0F0000843106070470146002070
:100F30007E4A0832106820F4E05008431060704781
:100F400001460020794A0832106820F4604040EAE7
:100F5000C10010607047F0B5002100220024022576
:100F600000260223714F08373F6807F00C0121B1BA
:100F7000042905D0082937D105E0724F076036E013
:100F8000714F076033E0694F3F1D3F68C7F38056DC
:100F9000664F3F1D3F6807F03F036EB16A4FB7FBD6
:100FA000F3F7DFF888C10CF1040CDCF800C0CCF3D7
:100FB000881C07FB0CF40CE0624FB7FBF3F7DFF87B
:100FC0006CC10CF1040CDCF800C0CCF3881C07FBEE
:100FD0000CF4564F3F1D3F68C7F301477F1C7D004F
:100FE000B4FBF5F7076002E0564F076000BF00BF93
:100FF0004E4F08373F6807F0F0010909534F7A5CFC
:101000000768D7404760494F08373F6807F4E05109
:10101000890A4E4F7A5C4768D7408760434F08374C
:101020003F6807F46041490B484F7A5C4768D740F6
:10103000C760F0BD002100F44072B2F5407F0AD1D4
:101040003A4A0832116821F4F811414A024011432A
:10105000364A08321160354A70321268C0F30B0309
:101060001A43324B70331A6070473549443908606F
:101070007047334940390860704736490860704707
:1010800001460020294A8C32106820F01F004A1EB9
:101090001043264A8C321060704701460020234AD4
:1010A0008C32106820F4F8504A1E40EA02201F4A91
:1010B0008C3210607047014600201C4A8C32106848
:1010C00020F4401008431060704701460020174A82
:1010D0008C32106820F440000843106070470146CD
:1010E0000020124A8C32106820F44030084310600F
:1010F000704719490860704739B10C4A303212689C
:1011000002430A4B30331A6006E0084A3032126854
:101110008243064B30331A607047F9B1034A3432C8
:1011200012680243014B34331A601CE0003802405D
:10113000FFFFF6EA10300024003000200000474294
:10114000800E47420024F40000127A009C00002028
:10115000FFFCFF0F5C014742E01147428F4A1268D3
:1011600082438E4B1A60704739B18C4A121D126847
:1011700002438A4B1B1D1A6006E0884A121D126842
:101180008243864B1B1D1A60704739B1834A0C326B
:1011900012680243814B0C331A6006E07F4A0C321E
:1011A000126882437D4B0C331A60704739B17B4A19
:1011B000103212680243794B10331A6006E0774A06
:1011C000103212688243754B10331A60704739B180
:1011D000724A243A12680243704B243B1A6006E0BC
:1011E0006E4A243A126882436C4B243B1A60704763
:1011F00039B16A4A203A12680243684B203B1A60B0
:1012000006E0664A203A12688243644B203B1A602B
:10121000704739B1614A1C3A126802435F4B1C3B6C
:101220001A6006E05D4A1C3A126882435B4B1C3B25
:101230001A60704739B1594A143A12680243574B41
:10124000143B1A6006E0554A143A12688243534B25
:10125000143B1A60704739B1504A103A1268024381
:101260004E4B103B1A6006E04C4A103A126882431B
:101270004A4B103B1A60704739B1484A1C32126819
:101280000243464B1C331A6006E0444A1C32126883
:101290008243424B1C331A60704739B13F4A2032B7
:1012A000126802433D4B20331A6006E03B4A20326D
:1012B00012688243394B20331A60704739B1374A7C
:1012C000243212680243354B24331A6006E0334A55
:1012D000243212688243314B24331A60704739B18B
:1012E0002E4A2C32126802432C4B2C331A6006E033
:1012F0002A4A2C3212688243284B2C331A607047DA
:1013000039B1264A303212680243244B30331A6016
:1013100006E0224A303212688243204B30331A6092
:101320007047012808D11D493C31096841F0080186
:101330001A4A3C32116007E018493C31096821F033
:101340000801164A3C321160704739B1134A273AF6
:1013500012780243114B273B1A7006E00F4A273AD6
:10136000127882430D4B273B1A7070470B48403070
:10137000006840F0807009494031086070470146BC
:101380000020064A283A12680A400AB1012000E00B
:1013900000207047014926390870704734380240F0
:1013A00010B501218803FFF756FF00214FF480405C
:1013B000FFF751FF10BD1C49086070471B490862C8
:1013C000704730B500228B071C0F0F2303FA04F27D
:1013D000154B08338C1053F824309343124C0834C7
:1013E0008D1044F8253023468C1053F824308C0798
:1013F000240F00FA04F423430B4C08348D1044F8F6
:10140000253030BD0949DC31086070470849086063
:101410007047002004492031096801F4807109B146
:10142000012000E000207047003801400000274202
:101430000004274210B50446FA48844208D101212D
:101440001020FFF708FF00211020FFF704FF57E0EE
:10145000F548844209D101214804FFF7EBFE002141
:101460004FF40030FFF7E6FE4AE0F048844209D12D
:1014700001218804FFF7DEFE00214FF48020FFF7F2
:10148000D9FE3DE0EA48844209D10121C804FFF7B2
:10149000D1FE00214FF40020FFF7CCFE30E0E548FC
:1014A000844209D101210805FFF7C4FE00214FF451
:1014B0008010FFF7BFFE23E0DF48844208D10121FE
:1014C0002020FFF7C8FE00212020FFF7C4FE17E010
:1014D000DA48844209D101218807FFF7ABFE0021D9
:1014E0004FF08040FFF7A6FE0AE0D548844207D1BE
:1014F00001214005FFF79EFE00216005FFF79AFEDF
:1015000010BD2DE9FF4705460E460024A14600BF49
:10151000A046B08900B100BF2C8A24F44054F08862
:1015200004432C82AC8941F20C608443B088318939
:101530000843718908430443AC81AC8A24F44074A5
:10154000B0890443AC826846FFF705FDB548854283
:1015500002D0B948854202D1DDF80C9001E0DDF8F7
:101560000890A88900F4004040B109EBC90000EBE5
:10157000091031684900B0FBF1F707E009EBC90039
:1015800000EB091031688900B0FBF1F76420B7FB6C
:10159000F0F004012009642101FB1078A88900F40F
:1015A000004040B1322000EBC800B0FBF1F000F089
:1015B0000700044308E0322000EB08106421B0FB70
:1015C000F1F000F00F0004432C81BDE8FF874FF4D9
:1015D0001651016000218180C18001810C2141816F
:1015E00000218181704710B502460020108A20F446
:1015F00070600B884C8823438C882343CC8823431A
:101600001843108210BD0021018041808180C1807B
:10161000704721B1828942F40052828104E08289BC
:101620004DF6FF731A4082817047028B02F47F42AD
:101630000283028B0A430283704721B1828942F4FC
:101640000042828103E08289C2F30E0282817047E8
:1016500021B1828A42F40062828204E0828A4FF2DF
:10166000FF731A4082827047C1F30802828070477C
:1016700001468888C0F308007047028A4FF6F0736D
:101680001A400282028A0A430282704721B182898B
:1016900042F00202828104E082894FF6FD731A4013
:1016A0008281704782894FF2FF731A40828182895A
:1016B0000A4382817047028A4FF6DF731A40028222
:1016C000028A0A430282704721B1028A42F48042B0
:1016D000028204E0028A4BF6FF731A4002827047CE
:1016E000818941F001018181704721B1828A42F0F4
:1016F0000802828204E0828A4FF6F7731A408282DF
:101700007047028BD2B20283028B42EA012202832B
:10171000704721B1828A42F02002828204E0828AEC
:101720004FF6DF731A408282704721B1828A42F0FD
:101730001002828204E0828A4FF6EF731A4082829E
:101740007047828A4FF6FB731A408282828A0A436C
:101750008282704721B1828A42F00202828204E0D2
:10176000828A4FF6FD731A40828270471AB1838ACB
:101770000B43838202E0838A8B4383827047F0B5F8
:101780000346002400260025002040F66A17B942CF
:1017900000D100BF1846C1F3421401F01F06012713
:1017A00007FA06F5012C01D10C3004E0022C01D11E
:1017B000103000E014301AB107682F43076002E0D0
:1017C0000768AF430760F0BD02460020B1F5007F17
:1017D00000D100BF13880B400BB1012000E00020B6
:1017E000704701F40072B2F5007F00D100BFCA4318
:1017F0000280704770B502460024002300250020B7
:1018000040F66A16B14200D100BFC1F3421501F0A3
:101810001F03012606FA03F3012D13D196893340E5
:1018200017E0000000100140004400400048004064
:10183000004C00400050004000140140007800407F
:10184000007C0040022D02D1168A334001E0968AC6
:1018500033400C12012606FA04F41688344013B102
:101860000CB1012000E0002070BD10B50022002363
:1018700040F66A14A14200D100BF0A12012494402C
:10188000A3B2DC43048010BD10B504466FF0040021
:10189000FEF794FEE11704EB5171C1F3C701394A19
:1018A00011701046007800EB4001C1EBC0104FF6FC
:1018B000FF7101EAC0003449088010BD0146314A79
:1018C00012784A434FF0E0235A6100229A611A4687
:1018D000126942F001021A6100BF4FF0E022106964
:1018E00000F001021AB100F48032002AF5D04FF066
:1018F000E022126922F001024FF0E0231A61002277
:101900009A6170470146204A12884A434FF0E0230B
:101910005A6100229A611A46126942F001021A6164
:1019200000BF4FF0E022106900F001021AB100F48C
:101930008032002AF5D04FF0E022126922F0010235
:101940004FF0E0231A6100229A61704770B5044697
:101950004FF4077094FBF0F0C6B24FF4077094FB9D
:10196000F0F100FB114085B205E04FF40770FFF77E
:10197000C9FF701EC6B2002EF7D115B12846FFF779
:10198000C1FF70BD2401002026010020014600BFD8
:101990000020704700BF594A128802F04002002A16
:1019A000F9D0C2B2554B9A80704710B596B0044634
:1019B00001210846FFF7A0FB01211020FFF7F6FBED
:1019C00001218805FFF798FB4FF0006001904B481C
:1019D000001D02904A480390402004906420059026
:1019E000002006904FF48060079000200890099036
:1019F0000A904FF400300B9000200C9001200D90C5
:101A000000200E900F9001A93E48FEF797FE01229C
:101A100010213C48FEF759FF012280213748FFF78B
:101A2000A5FE46208DF8000001208DF801008DF8FC
:101A300002008DF803006846FEF773FD002131486F
:101A4000FEF7B6FE072209212F48FFF742F90722C9
:101A50000A212D48FFF73DF94FF4C0601490022091
:101A60008DF8540003208DF8550000208DF85600A5
:101A700001208DF8570014A92348FFF79FF8109410
:101A80000020ADF84400ADF84600ADF84800ADF8D0
:101A90004C000820ADF84A0010A91848FFF731FDA6
:101AA00001211648FFF7B5FD16B010BD70B504460C
:101AB0000D462A462146124805F000FD29461148E8
:101AC000FEF797FE01210F48FEF772FE70BD10B5BC
:101AD0000E490C48FEF716FF68B10C490948FEF79D
:101AE000E0FE00210748FEF763FE012240F2266176
:101AF0000248FFF744FE10BD70470000001001408F
:101B000048040020B8640240000002400080002821
:101B100000B585B001210220FFF7EEFA4FF4004036
:101B2000009000208DF8040003208DF805000120AE
:101B30008DF8070069461448FFF740F80121880333
:101B4000FFF734FB0F210120FFF73BFC4FF400406F
:101B5000029000208DF80C000C208DF80D00012063
:101B60008DF80E0002A8FEF729FF28208DF810003E
:101B700001208DF811008DF812008DF8130004A8D3
:101B8000FEF7CFFC05B000BD000402401CB50121EA
:101B90000220FFF7B1FA4FF40050009001208DF8B9
:101BA000040000208DF8060003208DF805000120B8
:101BB0008DF8070069460F48FFF700F84FF4005111
:101BC0000C48FFF777F81CBD18B900210A4A1160CC
:101BD0000FE00A490968491C084A1160814208D18E
:101BE00005490968C943064AC2F8B4120021034AEC
:101BF0001160704700040240B48240421C02002081
:101C0000008040421CB501210220FFF775FA4FF415
:101C10004060009001208DF8040000208DF806003F
:101C200003208DF8050001208DF807006946F8486B
:101C3000FEF7C4FF0120F7490860F749C1F8AC027C
:101C40001CBD10B5F248006820F44000F04908605F
:101C50000846006840F4800008600120ED49091D35
:101C60000860ED48D0F82C0208B9002010BD012012
:101C7000E8490860FFF722FE0020E749C1F8AC02FE
:101C8000E4487C38006808B10020EFE70120FFF746
:101C900015FE0020DF4908600120E7E710B5DC48A9
:101CA000006820F44000DA4908600846006840F403
:101CB000800008600020D7490860D749C1F8AC020D
:101CC0000120FFF7FBFD0120D2490860D249C1F88D
:101CD000AC02FFF7F3FD10BD10B50024CC4800683E
:101CE00020F44000CA4908600846006808600120E6
:101CF000C849091D0860FFF7E1FD0120C649C1F888
:101D0000A802FFF7DBFD0AE0601CC4B2052C03DD6E
:101D1000FFF7C4FF002010BD0120FFF7CFFDBD4835
:101D20007C3800680028EFD1BA4908600120F2E74A
:101D300010B50020B7490860B548006820F440009D
:101D4000B34908600846006840F48000086000203D
:101D5000B149C1F8AC020120FFF7B0FD0120AD4947
:101D60000860FFF7ABFD0020AB49C1F8A80210BD29
:101D700010B50020A7490860A548006820F440007D
:101D8000A34908600846006840F48000086001200C
:101D9000A149C1F8AC02FFF791FD01209D490860FF
:101DA000FFF78CFD00209C49C1F8A80210BD70B55A
:101DB00004469748006820F44000954908600846AA
:101DC000006840F480000860002092490860002507
:101DD00016E0E0098F49091D08606006040E012025
:101DE000FFF76CFD01208C49C1F8A802FFF766FDE2
:101DF0000020884908600120FFF760FD681CC5B21B
:101E0000082DE6DB70BD2DE9F04105460E4617466C
:101E10009846FFF716FF10B90120BDE8F08169066A
:101E2000080EFFF7C4FFFFF757FF18B9FFF736FF9B
:101E30000120F2E73046FFF7BAFFFFF74DFF00241D
:101E40000BE018F80400FFF7B2FFFFF745FF18B9E1
:101E5000FFF724FF0020E0E7641CBC42F1DBFFF742
:101E60001DFF0020D9E770B50546002468480068CA
:101E700020F44000664908600846006808600026B3
:101E800016E00020634908600220FFF717FD0120DB
:101E90006149C1F8A8026006040E5E487C380068FB
:101EA00008B1601CC4B20220FFF708FD701CC6B266
:101EB000082EE6DB15B1FFF73BFF01E0FFF758FF07
:101EC000204670BD2DE9F04106460F4614461D46DA
:101ED000FFF7B7FE10B90120BDE8F0817106080ECA
:101EE000FFF765FFFFF7F8FE18B9FFF7D7FE0120EF
:101EF000F2E73846FFF75BFFFFF7EEFEFFF7A1FEC4
:101F0000012101EB4601C8B2FFF751FFFFF7E4FEE4
:101F10000DE0012C04D10020FFF7A5FF287003E09D
:101F20000120FFF7A0FF28706D1C601EC4B2002CBA
:101F3000EFD1FFF7B3FE0020CEE770B505460E46A1
:101F40000024FFF77EFE2846FFF731FF641CFFF7F1
:101F5000C3FE3046FFF72BFF641CFFF7BDFEFFF703
:101F600070FE691CC8B2FFF722FF641CFFF7B4FEC5
:101F70000020FFF778FF0446FFF790FE204670BD73
:101F80002DE9F0410746884615461E460024FFF716
:101F900058FE3846FFF70BFFFFF79EFE4046FFF75F
:101FA00006FFFFF799FEFFF74CFE791CC8B2FFF75A
:101FB000FEFEFFF791FE00BF0DE0681EA04204D0B8
:101FC0000120FFF750FF305503E00020FFF74BFFE3
:101FD0003055601CC4B2AC42EFDBFFF75FFE204619
:101FE000BDE8F0812DE9F04180460D4616461F46BA
:101FF0000024FFF726FE4046FFF7D9FEFFF76CFEF0
:102000002846FFF7D4FEFFF767FE00BF0DE0000093
:1020100000040240A882404200804042385DFFF741
:10202000C6FEFFF759FE601CC4B2B442F6DBFFF7F0
:1020300035FE0120BDE8F08170B505460E46144618
:1020400031462846FFF779FF2070012070BD37B573
:1020500004460D4602AB012229462046FFF7C2FF87
:102060003EBD2DE9F8430746884614461D46089EA6
:102070006A4641463846FFF7DFFF28B3601CFF2160
:1020800001FA00F0C4F108012944491EFF220A4167
:10209000104300F0FF09C5F1080006FA00F0C6B2CF
:1020A000C4F1070006419DF8000000EA0900009015
:1020B0009DF80000304300909DF8002041463846CE
:1020C000FFF7C5FFBDE8F8830020FBE7F8B506463B
:1020D0000F4614461D466A4639463046FFF7ACFFA8
:1020E0002DB10120A0409DF80010084305E001201B
:1020F000A0409DF8001021EA0000C0B200909DF8B9
:10210000002039463046FFF7A2FFF8BD10B56948F8
:10211000006800287ED14FF400406749086000F055
:102120007AFF01F0ECF8654880ED000AC0ED010A85
:1021300080ED021A624890ED000ADFED620A20EE9F
:10214000200ABDEEC00A10EE100A5F4908605C4824
:1021500090ED010ADFED5B0A20EE200ABDEEC00A19
:1021600010EE100A4860564890ED020ADFED550A5D
:1021700020EE200ABDEEC00A10EE100A8860534817
:1021800090ED070ADFED520A20EE200ADFED4D0A3E
:1021900020EE200ABDEEC00A10EE100AC8604B48BF
:1021A00090ED080ADFED4A0A20EE200ADFED450A2D
:1021B00020EE200ABDEEC00A10EE100A0861434866
:1021C00090ED090ADFED420A20EE200ADFED3D0A1C
:1021D00020EE200ABDEEC00A10EE100A4861374812
:1021E00090ED000AB1EE400ADFED3A0A20EE200A37
:1021F000BDEEC00A10EE100A8861304890ED010A69
:10220000DFED340A20EE200ABDEEC00A10EE100AFF
:10221000C86100E04BE0294890ED020ADFED2D0A8D
:1022200020EE200ABDEEC00A10EE100A08622A480D
:1022300090ED010ADFED290A20EE200ABDEEC00A6A
:1022400010EE100A4862244890ED020ADFED230ADE
:1022500020EE200ABDEEC00A10EE100A88621E4869
:1022600090ED030ADFED1D0A20EE200ABDEEC00A44
:1022700010EE100AC862184890ED000ADFED170A48
:1022800020EE200ABDEEC00A10EE100A086300F02E
:10229000D0F800F018F900F027F801201049087074
:1022A000044878300068C0430E49C1F8B4020020E9
:1022B00010BD00003C824042143C0140D805002083
:1022C0004806002000007A44140600201007002071
:1022D000F2D21C410000C8424007002000401C46CA
:1022E000980200200080404230B589B000240025CB
:1022F000AA208DF80400FF208DF8050001208DF83C
:10230000060019208DF807009948C068C0B28DF802
:1023100008009748C068000A8DF809009448C06812
:10232000000C8DF80A009248C068000E8DF80B0072
:102330008F480069C0B28DF80C008D480069000A12
:102340008DF80D008A480069000C8DF80E00884851
:102350000069000E8DF80F0085484069C0B28DF805
:10236000100083484069000A8DF8110080484069D8
:10237000000C8DF812007E484069000E8DF81300A5
:102380007B480068C0B28DF8140079480068000AE4
:102390008DF8150076480068000C8DF8160074481A
:1023A0000068000E8DF8170071484068C0B28DF8C3
:1023B00018006F484068000A8DF819006C484068A2
:1023C000000C8DF81A006A484068000E8DF81B005A
:1023D00067488068C0B28DF81C0065488068000AB4
:1023E0008DF81D0062488068000C8DF81E00604862
:1023F0008068000E8DF81F0001208DF8200000205D
:1024000007E001A9095C2144CCB22919CDB2411CD5
:10241000C8B29DF80710091D8142F2DC8DF82140F9
:102420008DF822501F2201A9524805F047F809B043
:1024300030BD7FB500240025AA208DF80000FF20C4
:102440008DF8010003208DF8020007208DF80300AD
:1024500047488069C0B28DF8040045488069000A89
:102460008DF805004248C069C0B28DF806004048AA
:10247000C069000A8DF807003D48006AC0B28DF8B7
:1024800008003B48006A000A8DF8090001208DF819
:102490000A00002007E01DF800102144CCB22919E1
:1024A000CDB2411CC8B29DF80310091D8142F2DC77
:1024B0008DF80B408DF80C500D2269462D481F30C9
:1024C00004F0FCFF7FBD7FB500240025AA208DF815
:1024D0000000FF208DF8010004208DF80200092083
:1024E0008DF803002248006BC0B28DF8040020482C
:1024F000006B000A8DF805001D48406AC0B28DF8D7
:1025000006001B48406A000A8DF807001848806AD8
:10251000C0B28DF808001648806A000A8DF80900DC
:102520001348C06AC0B28DF80A001148C06A000A98
:102530008DF80B0001208DF80C00002007E01DF83D
:1025400000102144CCB22919CDB2411CC8B29DF86B
:102550000310091D8142F2DC8DF80D408DF80E50FC
:102560000F22694603482C3004F0A8FF7FBD00000D
:10257000140600200C040020014691F90020002AD6
:1025800001DD00201EE091F90020002A01DA04207C
:1025900018E091F90120002A01DD012012E091F9F3
:1025A0000120002A01DA05200CE091F90220002A1E
:1025B00001DD022006E091F90220002A01DA06205E
:1025C00000E00720704770B505462846FFF7D4FFA6
:1025D0000446E81CFFF7D0FF44EAC00084B2A81DFF
:1025E000FFF7CAFF44EA801084B2204670BD10B5E0
:1025F00088B002A905A802F0CAFC0446072C42D103
:1026000001A801F019FF9DED050AB8EEC00ADDED45
:10261000010A20EE200ABDEEC00A8DED050A9DEDEF
:10262000060AB8EEC00ADDED010A20EE200ABDEE72
:10263000C00A8DED060A9DED070AB8EEC00ADDED71
:10264000010A20EE200ABDEEC00A8DED070A05A89A
:1026500002F0AEFF684601F014FFBDF800100298CA
:1026600048430290BDF80010039848430390BDF81A
:10267000001004984843049002A803F02CF8FCA032
:1026800004F074FE00BF08B010BD2DE9F04304460D
:102690000D46DDE907670021012041E0DFF8F4C3C2
:1026A0003CF81080A0F1010CDFF8E89329F81C80B9
:1026B00009F1160C3CF81090A0F1010CDFF8D4835E
:1026C00008F1160828F81C9008F1160C3CF8109038
:1026D000A0F1010C08F1160828F81C9008F1160C5E
:1026E0003CF81090A0F1010C08F1160828F81C9095
:1026F00008F1160C3CF81090A0F1010C08F1160836
:1027000028F81C9008F1160C3CF81090A0F1010C70
:1027100008F1160828F81C9000F1010C0CF0FF00DD
:102720000A28BBDBDFF86CC3ACF81240ACF82850C9
:10273000ACF83E20ACF85430ACF86A60ACF880706D
:102740000021002008E0DFF84CC33CF910C06144D0
:1027500000F1010C0CF0FF000A28F4DB4FF00A0C2A
:1027600091FBFCFC0FFA8CFCDFF82883A8F814C05E
:10277000002100200AE0DFF81CC30CF1160C3CF924
:1027800010C0614400F1010C0CF0FF000A28F2DBDC
:102790004FF00A0C91FBFCFC0FFA8CF8DFF8F4C246
:1027A000ACF82A80002100200AE0DFF8E8C20CF132
:1027B0002C0C3CF910C0614400F1010C0CF0FF003E
:1027C0000A28F2DB4FF00A0C91FBFCFC0FFA8CF8A4
:1027D000DFF8C0C2ACF84080002100200AE0DFF83A
:1027E000B4C20CF1420C3CF910C0614400F1010C80
:1027F0000CF0FF000A28F2DB4FF00A0C91FBFCFC06
:102800000FFA8CF8DFF88CC2ACF85680002100205B
:102810000AE0DFF880C20CF1580C3CF910C06144AA
:1028200000F1010C0CF0FF000A28F2DB4FF00A0C5B
:1028300091FBFCFC0FFA8CF8DFF858C2ACF86C8006
:10284000002100200AE0DFF84CC20CF16E0C3CF9CC
:1028500010C0614400F1010C0CF0FF000A28F2DB0B
:102860004FF00A0C91FBFCFC0FFA8CF8DFF824C245
:10287000ACF88280BDE8F08338B504460323022219
:102880006B21D0200094FFF7ECFB38BD38B504462F
:10289000022304221B21D0200094FFF7E2FB38BD65
:1028A00038B50446022304221C21D0200094FFF7EF
:1028B000D8FB38BD10B50446234606226B21D02034
:1028C000FFF704FC10BD10B5734B01227521D02019
:1028D000FFF756FB7048007810BD10B5FFF7F3FF07
:1028E000682801D1012010BD0020FCE710B5044686
:1028F000234605226A21D020FFF7E8FB10BD10B562
:102900000446234601223721D020FFF7DFFB10BD0C
:1029100010B50320FFF7B0FF0220FFF7B7FF01203B
:10292000FFF7BEFF0020FFF7C5FF0020FFF7DEFF27
:102930000020FFF7E4FF10BD70B52DED068BADF55F
:102940003E7D0020019001AB012275216820FFF738
:10295000B9FA52A004F00AFD9DF80400682810D0CE
:1029600000BFBFF34F8F5648006800F4E060554940
:102970000843001D52490860BFF34F8F00BF00BFDE
:10298000FEE701F067FA002871D1782000F0C7FE59
:1029900010B942A004F0EAFC782001F0A7F810B9C1
:1029A00049A004F0E3FC4FF47A7001F084F910B907
:1029B0004FA004F0DBFC1821A2A804F0CCFD1821E4
:1029C0009CA804F0C8FD00265BE11821B4A804F01F
:1029D000C2FD1821A8A804F0BEFD1821AEA804F07D
:1029E000BAFD4FF4167102A804F0B5FD00253AE0D7
:1029F000BAA8BCABBBAA98A900909AA801F099FD0F
:102A000000200AE09AA931F8101005EB450202AB4C
:102A100003EB420222F81010401C0328F2DB0024D2
:102A20001EE005EB450102AA02EB410131F9140059
:102A300007F05AF941EC180BAEA800EBC40090ED7A
:102A4000001BB0EE410AF0EE610A53EC102B51EC82
:102A5000180B06F035FFAEAA02EBC40203C2641CD9
:102A6000032CDEDB6D1C642DC2DB00246AE06BE10D
:102A700073657474696E672062696173207375632E
:102A800063657366756C6C79202E2E2E2E2E2E0D9E
:102A90000A0000006E060020600600206D70755F61
:102AA0007365745F73656E736F7220636F6D706CA6
:102AB000657465202E2E2E2E2E2E0D0A000000008D
:102AC0000CED00E00000FA056D70755F636F6E66D7
:102AD00069677572655F6669666F20636F6D706C9C
:102AE000657465202E2E2E2E2E2E0D0A000000005D
:102AF0006D70755F7365745F73616D706C655F7227
:102B000061746520636F6D706C657465202E2E2E68
:102B10002E2E2E0D0A000000AEA800EBC40090ED92
:102B2000001BB0EE410AF0EE610A9FEDFE1B53EC74
:102B3000112B51EC100B06F07FFFB4AA02EBC4027C
:102B400003C2641C032CE7DB002540E000243BE0CB
:102B500005EB450102AA02EB410131F9140007F02F
:102B6000C3F841EC1A0BB4A800EBC40090ED001BB5
:102B7000B0EE410AF0EE610A53EC102B51EC1A0B47
:102B800007F012FB41EC190B9FEDE81BB0EE490A70
:102B9000F0EE690A05F050FDB0EE408AF0EE608A72
:102BA000A8A800EBC40090ED001BB0EE410AF0EEC7
:102BB000610A53EC102B51EC180B06F081FEA8AA09
:102BC00002EBC40203C2641C032CC1DB6D1C642D28
:102BD000BCDB002415E0A8A800EBC40090ED001BAE
:102BE000B0EE410AF0EE610A9FEDCE1B53EC112BC3
:102BF00051EC100B06F020FFA8AA02EBC40203C29E
:102C0000641C032CE7DB002438E0B4A800EBC4000C
:102C100090ED002BB0EE420AF0EE620AA2A800EBA3
:102C2000C40090ED002BB0EE421AF0EE621A53ECA5
:102C3000102B51EC110B06F043FEA2AA02EBC402CA
:102C400003C2A8A800EBC40090ED002BB0EE420A2E
:102C5000F0EE620A9CA800EBC40090ED002BB0EEF1
:102C6000421AF0EE621A53EC102B51EC110B06F0E5
:102C700027FE9CAA02EBC40203C2641C032CC4DB23
:102C8000761C0A2EFFF6A1AE00242AE0A2A800EBD3
:102C9000C40090ED001BB0EE410AF0EE610A9FED1A
:102CA000A51B53EC112B51EC100B06F0C5FEA2AA8C
:102CB00002EBC40203C29CA800EBC40090ED001B11
:102CC000B0EE410AF0EE610A9FED9A1B53EC112B16
:102CD00051EC100B06F0B0FE9CAA02EBC40203C23A
:102CE000641C032CD2DB002420E0944890ED000A01
:102CF00010EE101A084607F041FB41EC190BA2A890
:102D000000EBC40090ED001BB0EE410AF0EE610A4A
:102D100053EC102B51EC190B07F03AF841EC180B5F
:102D200006F09CFD864941F82400641C032CDCDB82
:102D3000DFED840A9FED840A844804F093F9B6EE2F
:102D4000000A834803F058FA0DF53E7DBDEC068B72
:102D500070BD00B52DED088B89B007A87D4908AB83
:102D600003AACDE900107C497C4803F037F9794883
:102D7000008800F4807000287DD09DED030AB8EE35
:102D8000C00ADFED770A80EE201A764880ED001A3F
:102D90009DED040AB8EEC00ADFED710A80EE201A3C
:102DA000714880ED001A9DED050AB8EEC00ADFED0E
:102DB0006C0A80EE201A6D4880ED001A9DED060A1F
:102DC000B8EEC00ADFED660A80EE201A684880ED92
:102DD000001A654890ED000AF8EE000A20EE200A7D
:102DE0006348D0ED000A20EE200A5E48D0ED000ACC
:102DF000B0EE001A60EE810A5C4890ED001A00EE19
:102E0000810A10EE101A084607F0B8FA41EC1A0BC6
:102E1000B0EE4A0AF0EE6A0A04F086FDB0EE409A7F
:102E2000F0EE609A9FED530B53EC102B51EC190B05
:102E300006F0AEFF41EC180B06F010FD4F4908609C
:102E4000494890ED000AF8EE000A20EE200AD0ED85
:102E5000000A20EE200A4548D0ED000AB0EE001A24
:102E600060EE810A90ED001A00EEC10AF7EE000A4A
:102E700030EE200A00E0CAE010EE101A084607F013
:102E80007DFA41EC1A0B394890ED000AF0EE000A89
:102E900020EE200A3648D0ED000A20EE200A314804
:102EA000D0ED000AB0EE001A60EE810A2E4890EDD7
:102EB000001A00EE810A10EE101A084607F05EFABA
:102EC00041EC1B0BB0EE4A1AF0EE6A1AB0EE4B0A58
:102ED000F0EE6B0A05F0DCF8B0EE409AF0EE609A86
:102EE0009FED240B53EC102B51EC190B06F050FF07
:102EF00041EC180B06F0B2FC21490860194890ED2E
:102F0000000A20EE000A1848D0ED000A90ED001AE1
:102F100000EE810A1548D0ED000A90ED001A00EE8F
:102F2000C10A2FE00000000000005940000000002E
:102F30000000004000000000000024404C0300207E
:102F4000E40500206F12833A9A99993EF406002016
:102F500010070020200300201A0300201403002083
:102F60000000804E24030020280300202C030020B2
:102F7000300300206666666666A64C407800002036
:102F80007C000020FE48D0ED000A90ED001A00EE13
:102F9000C10A10EE101A084607F0F0F941EC1A0BBE
:102FA000F84890ED000AF848D0ED000A20EE200A1B
:102FB000F648D0ED000AF24890ED001A00EE810AC2
:102FC000F0EE000A20EE200A10EE101A084607F074
:102FD000D5F941EC1B0BB0EE4A1AF0EE6A1AB0EECE
:102FE0004B0AF0EE6B0A05F053F8B0EE409AF0EEA3
:102FF000609A1FED200B53EC102B51EC190B06F0CF
:10300000C7FE41EC180B06F029FCE149086009B045
:10301000BDEC088B00BD0EB501A8DE4B02AADE494F
:103020000090DE4801F085FADA48007800F0780078
:1030300000287CD000201DE0D94901EB800191EDF2
:10304000000AD64931F9101000EE901AF8EEE00AA5
:10305000D44991ED001A10EE810AD34901EB8001A9
:10306000D1ED000A20EE200AD04901EB800181ED6C
:10307000000A401C0328DFDBCD4890ED000ACB4856
:10308000D0ED000A20EE200AC948D0ED010AC74859
:1030900090ED011A00EE810AC548D0ED020AC3483E
:1030A00090ED021A00EE810AC24880ED000AC04885
:1030B00090ED030ABD48D0ED000A20EE200ABC487E
:1030C000D0ED040AB94890ED011A00EE810AB84823
:1030D000D0ED050AB54890ED021A00EE810AB54818
:1030E00080ED010AB24890ED060AB048D0ED000A22
:1030F00020EE200AAE48D0ED070AAC4890ED011A48
:1031000000EE810AAA48D0ED080AA84890ED021AFC
:1031100000EE810AA74880ED020A90ED000AA64859
:1031200080ED000AA34890ED010AA34800E09BE06F
:1031300080ED010A9F4890ED020A9F4880ED020A47
:10314000002021E0944931F9101000EE101AB8EE79
:10315000C00A9A49D1ED000A60EE200A984901EBB5
:10316000800191ED000A9FED971A10EE810A9649B1
:1031700001EB8001D1ED000A20EE200A8B4901EB22
:10318000800181ED000A401C0328DBDB8F4890EDB5
:10319000000A8648D0ED000A20EE200A8B48D0EDC8
:1031A000010A824890ED011A00EE810A8748D0EDAD
:1031B000020A7E4890ED021A00EE810A844880EDF2
:1031C000000A824890ED030A7848D0ED000A20EE0C
:1031D000200A7E48D0ED040A744890ED011A00EEF2
:1031E000810A7A48D0ED050A704890ED021A00EE87
:1031F000810A774880ED010A744890ED060A6B4811
:10320000D0ED000A20EE200A7048D0ED070A67488A
:1032100090ED011A00EE810A6C48D0ED080A63486F
:1032200090ED021A00EE810A694880ED020A90EDE5
:10323000000ADFED640A80EE201A664880ED001A6D
:10324000634890ED010ADFED5F0A80EE201A6148C5
:1032500080ED011A5E4890ED020ADFED5A0A80EE19
:10326000201A5C4880ED021A0EBD10B52DED0A8BB8
:103270004221D020FEF761FE04464121D020FEF716
:103280005CFE04EB002000EE100AB8EEC00AB0EEBF
:10329000408A9FED510AB4EEC08AF1EE10FA05DDC6
:1032A0009FED4E0A38EE400AB0EE408A18EE100A42
:1032B00007F064F841EC1C0B9FED490B53EC102B0D
:1032C00006F0BAFB41EC1B0B9FED470B53EC102BA8
:1032D00006F0F6FA41EC1A0B1FEDEE0B53EC102B37
:1032E00006F056FD41EC190B06F0B8FA08EE100A8C
:1032F000BDEEC80A10EE100ABDEC0A8B10BD00B579
:103300002DED028B8FB02C4A116850689268CDE980
:103310000D020C919DED0E1ADDED0D0A9DED0C0ACE
:10332000334803F0D1FE244880ED000AC0ED010AC5
:1033300080ED021A274A1068516892680CAB07C3E7
:103340001D4A1068516892689FED2A3A09AB07C37D
:10335000DDED0E2A9DED0D2ADDED0C1A9DED0B1A0B
:10336000DDED0A0A9DED090A234803F036FD2248E7
:1033700003F070FD214880ED000AC0ED010A3FE036
:1033800030030020280300202C0300202403002009
:1033900080000020220300201A03002014030020D4
:1033A000E40500204C030020FC0200205007002010
:1033B000D8020020FC050020480600205803002009
:1033C000CC020020F2D21C41C00200209C0200204E
:1033D000080600203403002000000047000080475A
:1033E000000000000040754000000000D74342404C
:1033F000F40600206F12833A1007002040070020D7
:1034000080ED021AC0ED031A034618685A689968DD
:10341000DB68CDE90A13CDE9080211460A9ACDE925
:103420000623CDE90401DDED040A9DED041AB6EE94
:10343000000A10EE810AB0EE408A9DED061ADDED1D
:10344000071A21EE211ADDED041A9DED052A01EE81
:10345000C21AB0EE410ADDED071A9DED072AB0EE63
:10346000481A01EE821AF0EE410A04F009FFF0EE6C
:10347000408A9FED490A28EE800A8DED010ADDEDB4
:10348000050A9DED071A60EE810A9DED041ADDED37
:10349000061A41EE210AB0EE001A60EE810AB0EE83
:1034A000600A04F0F1FBFFEE000A60EE208A9FED57
:1034B0003A0A28EE800A8DED020A9DED051ADDED2F
:1034C000061A21EE211ADDED041A9DED072A01EE00
:1034D000C21AB0EE410ADDED051A9DED052AB0EEE7
:1034E000481A01EE821AF0EE410A04F0C9FEF0EE2D
:1034F000408A9FED290A28EE800A8DED030A9DED92
:10350000010ADDED020A9DED031A8DED0C0ACDEDE9
:103510000D0A8DED0E1A9DED0C0ADDED0D0A9DEDE7
:103520000E1A0FB0BDEC028B00BD024600201CE05D
:103530001A4B93ED000AF7EE000A30EEC00A02EBD8
:103540008003D3ED000A20EE200A154B03EB800325
:10355000D3ED000A114B93ED001A01EE200A104B37
:1035600003EB800383ED000A401C0328E0DB00200E
:103570000FE002EB800393ED000A094B03EB80039D
:10358000D3ED000A30EE600A01EB800383ED000A00
:10359000401C0328EDDB7047E02E654264030020E9
:1035A0005C07002038B50446FB4890F82400C0B101
:1035B00014B10220009001E000200090F64A126849
:1035C000D17BF54A526810786B460122FEF71BFC4E
:1035D00010B14FF0FF3038BD9DF80010EE48417437
:1035E00023E0ED48807A10B94FF0FF30F3E724B1C3
:1035F000E948407C08B10020EDE714B101200090BB
:1036000001E000200090E44A1268D17BE24A52684F
:1036100010786B460122FEF7F6FB10B14FF0FF3039
:10362000D9E79DF80010DC4841740020D3E738B595
:10363000002419E0D8480068C07AA04204D0D648D7
:103640000068407DA04200D10CE0D3494968087869
:103650006B4601222146FEF735FC10B14FF0FF30DA
:1036600038BD00BF601CC4B2CB4840680079A0429E
:10367000E0DC0020F4E770B504460D46C64800685B
:10368000C07AA04204D0C4480068407DA04202D164
:103690004FF0FF3070BDC04840680079A04202DCA6
:1036A0004FF0FF30F6E7BC49496808782B46012205
:1036B0002146FEF707FCEDE738B50446B64890F81A
:1036C0002300A04201D1002038BD14B13020009069
:1036D00001E000200090B048807C20B19DF80000FF
:1036E00040F002000090AC4890F8220020B19DF814
:1036F000000040F080000090A74A1268117DA64AA1
:10370000526810786B460122FEF77DFB10B14FF036
:10371000FF30D9E7A04880F823400020D4E738B52F
:10372000044604F0700010B10120009005E014B1CF
:103730000020009001E040200090974A1268917CA0
:10374000954A526810786B460122FEF75CFB20B167
:10375000002191488172481E38BD9DF8000020F07C
:1037600040018D4801730020009004F0400020B912
:103770009DF8000040F00400009004F0200020B903
:103780009DF8000040F00200009004F0100020B905
:103790009DF8000040F00100009004F0080020B9FE
:1037A0009DF8000040F0380000907B4A1268D17C00
:1037B000794A526810786B460122FEF724FB20B14B
:1037C000002175488172481EC6E724B1082C02D03A
:1037D0000020FFF771FF70488472002101753220CC
:1037E000FEF7B4F80020B7E738B504466A48807C95
:1037F000A04201D1002038BD002C46D0664A126894
:103800001179654A526810786B460122FEF75AFB1F
:1038100010B14FF0FF30EEE79DF8000020F02000DF
:1038200000905D4A126811795B4A526810786B46C5
:103830000122FEF7E8FA10B14FF0FF30DBE703207A
:10384000FEF784F802200090534890F8220020B13F
:103850009DF8000040F0800000904F4890F8230051
:1038600020B19DF8000040F0300000904A4A1268F4
:10387000117D494A526810786B460122FEF7C3FA5F
:10388000002851D04FF0FF30B5E7434A1268117954
:10389000414A526810786B460122FEF713FB10B1C3
:1038A0004FF0FF30A7E73C48807A00F0010028B1D4
:1038B0009DF8000040F02000009004E09DF800001A
:1038C00020F020000090344A12681179324A526880
:1038D00010786B460122FEF796FA10B14FF0FF30D8
:1038E00089E70320FEF732F82B4890F8220010B148
:1038F0008020009001E000200090274890F82300ED
:1039000020B19DF8000040F030000090224A12687B
:10391000117D214A526810786B460122FEF773FA36
:1039200010B14FF0FF3066E71B488474002062E757
:1039300008B51948807A10B94FF0FF3008BD002053
:103940000090154A1268D17B134A526810786B4672
:103950000122FEF758FA10B14FF0FF30EEE70E4AA1
:10396000126851790C4A526810786B460122FEF7B2
:103970004AFA10B14FF0FF30E0E7074A12681179B8
:10398000054A526810786B460122FEF73CFA28B1CE
:103990004FF0FF30D2E70000E0030020F74890F836
:1039A0002400002850D00C200090F44A12681179AD
:1039B000F24A526810786B460122FEF724FA10B1E1
:1039C0004FF0FF30BAE7C0200090EC48807A00F05A
:1039D000010020B19DF8000040F020000090E74A6F
:1039E00012681179E54A526810786B460122FEF799
:1039F0000AFA10B14FF0FF30A0E7E048407C10B168
:103A00000220009001E000200090DC4A1268D17B87
:103A1000DA4A526810786B460122FEF7F4F910B1C9
:103A20004FF0FF308AE700200090D44A12685179A5
:103A3000D24A526810786B460122FEF7E4F900285A
:103A400052D04FF0FF3079E704200090CB4A126843
:103A50001179CA4A526810786B460122FEF7D3F9F1
:103A600010B14FF0FF3069E7C448807C20B9C348EB
:103A7000807A00F0010010B94020009001E0602041
:103A80000090BE4A12681179BC4A526810786B46A1
:103A90000122FEF7B8F910B14FF0FF304EE7B748FA
:103AA000407C10B10120009001E000200090B34A5A
:103AB0001268D17BB14A526810786B460122FEF73A
:103AC000A2F910B14FF0FF3038E7AC4A12685179D3
:103AD000AA4A52681078A94B10330122FEF793F9D5
:103AE00010B14FF0FF3029E7002027E770B50446FA
:103AF000002624F00104A14890F8240008B1002019
:103B000070BD9E48807A10B94FF0FF30F8E79B48AF
:103B1000057C807A2040994908740846007CA042C0
:103B200002D04FF0FF3600E0002614B99348007D24
:103B300018B10120FFF736FD02E00020FFF732FD4B
:103B40003CB1FFF7F5FE20B18C4805744FF0FF3013
:103B5000D6E73046D4E738B504468848807A10B9AD
:103B60004FF0FF3038BDBC2C02DB0120009019E083
:103B7000622C02DB0220009014E02A2C02DB0320DE
:103B800000900FE0142C02DB042000900AE00A2CC5
:103B900002DB0520009005E014B90020009001E050
:103BA000062000907548C07A9DF80010884201D127
:103BB0000020D7E7714A12689178704A52681078ED
:103BC0006B460122FEF71FF910B14FF0FF30C9E735
:103BD0009DF800106948C1720020C3E738B504465B
:103BE000282C02DD4FF0FF3038BDDCB90020FFF794
:103BF00063FD00208DF8000007208DF801005F4A6A
:103C00001268917C5D4A526810786B460222FEF77A
:103C1000FAF810B14FF0FF30E6E700215748017580
:103C20000020E1E70120FFF747FD20208DF800008C
:103C3000012C06D100208DF801000520FFF78BFF35
:103C400017E0052C06DC01208DF801000520FFF7A8
:103C500082FF0EE0142C06DC02208DF801000A2001
:103C6000FFF779FF05E003208DF801001420FFF72E
:103C700072FF9DF80100072101EB8010C0B28DF8A2
:103C800001003E4A1268917C3C4A526810786B46AB
:103C90000222FEF7B8F810B14FF0FF30A4E7082178
:103CA0003648817200210173012101750020FFF760
:103CB0001DFF002098E738B504463048807A10B9D7
:103CC0004FF0FF3038BD2D4890F8240010B14FF070
:103CD000FF30F7E72948007D50B134B1282C04DCCF
:103CE000E0B2FFF77BFF0020ECE70020FFF776FF54
:103CF000042C01DA042404E0B4F57A7F01DD4FF4EA
:103D00007A744FF47A7090FBF4F0401EC0B20090C9
:103D10001A4A12685178194A526810786B46012283
:103D2000FEF771F810B14FF0FF30CBE79DF80000BF
:103D3000401C4FF47A7191FBF0F081B20F48C181C1
:103D40000146C9894810FFF706FF0020BAE738B5D9
:103D500004460A48807A10B94FF0FF3038BD022C73
:103D600006D0042C07D0082C0AD0102C0ED10AE063
:103D7000002000900DE0082000900AE0E003002001
:103D80001020009005E01820009002E04FF0FF3076
:103D9000E4E700BFF748407A9DF80010B0EBE10F70
:103DA00001D10020DAE7F34A1268D179F14A52686A
:103DB00010786B460122FEF726F810B14FF0FF3065
:103DC000CCE79DF80000C110EA4841720020C5E729
:103DD00038B50446E748807A10B94FF0FF3038BD57
:103DE000FA2C09D0B4F5FA7F09D0B4F57A7F09D05E
:103DF000B4F5FA6F0CD108E0002000900BE0082029
:103E0000009008E01020009005E01820009002E0EB
:103E10004FF0FF30E3E700BFD648007A9DF800106E
:103E2000B0EBE10F01D10020D9E7D24A12689179B5
:103E3000D04A526810786B460122FDF7E4FF10B1BA
:103E40004FF0FF30CBE79DF80000C010C949087261
:103E50000020C4E71CB580208DF80000C54A126818
:103E6000917CC44A526810786B460122FDF7CBFF63
:103E700010B14FF0FF301CBD6420FDF767FD00203E
:103E80008DF80000BB4A1268917CBA4A52681078DB
:103E90006B460122FDF7B7FF10B14FF0FF30EAE7A4
:103EA000B44A1268917DB34A526810786B46062274
:103EB000FEF708F810B14FF0FF30DCE79DF8050081
:103EC000C007400F9DF8031001F0010140EA4100D6
:103ED0009DF8011001F0010140EA010494B1012CA8
:103EE00003D10121A348C17431E0022C03D1002188
:103EF000A048C1742BE021469FA003F037FA4FF091
:103F0000FF30B8E79B4A1268D1789A4A5268107815
:103F10006B460122FDF7D6FF10B14FF0FF30AAE744
:103F20009DF8000000F00F042CB99D4803F01EFA24
:103F30004FF0FF309FE7042C06D19AA003F016FA49
:103F400001218C48C17402E000218A48C174FF211C
:103F500088488172FF2087490872FF218548417295
:103F6000C1724FF6FF71C181FF210174817401217B
:103F7000017380F82210002180F82310417501752B
:103F80001630016041608160163880F8241080F896
:103F90002510C1844FF47A70FFF71AFF10B14FF06B
:103FA000FF3068E70420FFF7D2FE10B14FF0FF307A
:103FB00061E70020FFF7CFFD10B14FF0FF305AE767
:103FC0004FF47A70FFF777FE10B14FF0FF3052E7F1
:103FD0000020FFF78BFD10B14FF0FF304BE70020C2
:103FE000FFF702FC10B14FF0FF3044E70020FFF76D
:103FF00096FB00203FE770477CB504460D465D48C0
:10400000807A00F0700010B94FF0FF307CBD594A43
:104010001268117B574A526810786B460622FDF7EA
:1040200051FF10B14FF0FF30F0E79DF801009DF80F
:10403000001040EA012000B220809DF803009DF8A6
:10404000021040EA012000B260809DF805009DF852
:10405000041040EA012000B2A08015B12846FFF705
:10406000CAFF0020D2E77CB504460D464148807A5D
:1040700000F0080010B94FF0FF307CBD3D4A1268D7
:10408000517B3C4A526810786B460622FDF71AFFB6
:1040900010B14FF0FF30F0E79DF801009DF80010DF
:1040A00040EA012000B220809DF803009DF8021034
:1040B00040EA012000B260809DF805009DF80410E0
:1040C00040EA012000B2A08015B12846FFF793FF17
:1040D0000020D2E7F8B506460C462648807A10B98B
:1040E0004FF0FF30F8BD234A1268917B214A526895
:1040F00010786B460222FDF7E5FE10B14FF0FF305D
:10410000F0E79DF801009DF8001040EA012005B29B
:1041100014B12046FFF76FFF16484068B0F9080059
:1041200000EE100AF8EEC00A00EE105AB8EEC00A0F
:1041300070EE600A0F484068C08800EE100AB8EEC2
:10414000400A80EE801A9FED1F0A31EE000ADFED73
:104150001E0A20EE200ABDEEC00A86ED000A0020ED
:10416000C0E710B588B004461CB94FF0FF3008B066
:1041700010BD2BE0E0030020556E737570706F72F8
:1041800074656420736F6674776172652070726FF6
:1041900064756374207265762025642E0A00000021
:1041A00068B3000848616C662073656E7369746952
:1041B00076697479207061727420666F756E642EF2
:1041C0000D0A000000000C4200008047206830B952
:1041D000606820B9A06810B9002008B010BDF94986
:1041E0004968087806AB03221146FDF76BFE10B153
:1041F0004FF0FF30F1E79DF81800082101EB201087
:1042000000F00F00ADF800009DF8190001EB201040
:1042100000F00F00ADF802009DF81A0001EB20102D
:1042200000F00F00ADF8040020684100BDF9000067
:10423000403091FBF0F000B2ADF810006068410032
:10424000BDF90200403091FBF0F000B2ADF8120071
:10425000A0684100BDF90400403091FBF0F000B2CD
:10426000ADF81400D7494968087806AB0622114614
:10427000FDF728FE10B14FF0FF30AEE79DF81900B2
:104280009DF8181040EA012000B2ADF808009DF832
:104290001B009DF81A1040EA012000B2ADF80A0098
:1042A0009DF81D009DF81C1040EA012000B2ADF8F9
:1042B0000C00BDF81000BDF80810084400B2ADF8BD
:1042C0001000BDF81200BDF80A10084400B2ADF8A5
:1042D0001200BDF81400BDF80C10084400B2ADF88F
:1042E0001400BDF81000000A8DF81800BDF8100089
:1042F000C0B28DF81900BDF81200000A8DF81A003E
:10430000BDF81200C0B28DF81B00BDF81400000A01
:104310008DF81C00BDF81400C0B28DF81D00A9492D
:104320004968087806AB06221146FDF76CFD10B10E
:104330004FF0FF3051E700204FE70146A148007AD7
:1043400030B1012807D0022809D003280FD10AE094
:10435000FA2008800EE04FF4FA7008800AE04FF46B
:104360007A70088006E04FF4FA60088002E00020CE
:10437000088000BF00BF0020704701469148407A86
:1043800030B1012807D0022808D003280CD108E05A
:10439000022008700BE00420087008E00820087074
:1043A00005E01020087002E04FF0FF30704700BFBA
:1043B0008448C07C18B108784006000E08700020C0
:1043C000F4E701467F48C07A082817D2DFE800F0FA
:1043D0001704070A0D101318BC20088013E0622090
:1043E000088010E02A2008800DE0142008800AE0F0
:1043F0000A20088007E00520088004E000BF00BF15
:104400000020088000BF00BF0020704701466D48B3
:1044100090F8240010B14FF0FF3070476948C08910
:1044200008800020F9E7014600200880401E704700
:1044300001464FF0FF30704701466248007A30B1C4
:10444000012809D002280CD0032814D10EE09FEDDA
:104450005E0A81ED000A11E09FED5C0A81ED000A21
:104460000CE09FED5B0A81ED000A07E09FED590A21
:1044700081ED000A02E04FF0FF30704700BF0020DE
:10448000FBE701464F48407A30B1012808D00228A6
:104490000AD0032810D10BE04FF4804008800EE0D2
:1044A00041F69C7008800AE04FF48050088006E0D6
:1044B0004FF40060088002E04FF0FF30704700BF0B
:1044C0004048C07C10B10888401008800020F5E703
:1044D00001463C48007C087000207047014639487E
:1044E000807A10B10120087001E0002008700020DF
:1044F000704738B504463348807A10B94FF0FF3022
:1045000038BD304A1268117C2E4A526810786B46CA
:104510000222FDF7D7FC10B14FF0FF30F0E79DF815
:1045200001009DF8001040EA012000B22080002028
:10453000E6E72DE9FE4F0746884692461D46DDF820
:1045400030B0002600241F4890F8240010B1601EEF
:10455000BDE8FE8F002028701A48807A10B94FF00D
:10456000FF30F5E71748007C10B94FF0FF30EFE758
:104570001448007C00F0400008B1B01CC6B21148DD
:10458000007C00F0200008B1B01CC6B20D48007CD1
:1045900000F0100008B1B01CC6B20A48007C00F060
:1045A000080008B1B01DC6B2064A1268917A054AE1
:1045B000526810786B460222FDF784FC60B14FF020
:1045C000FF30C5E7E0030020000003430000834202
:1045D00033330342333383419DF801009DF80010CB
:1045E00040EA0129B14501DA0020B1E7FA48406804
:1045F0004088B9EB600F17DDF74A1268517CF64A24
:10460000526810786B460122FDF75CFC10B14FF048
:10461000FF309DE79DF8000000F0100020B1FFF78B
:1046200087F96FF0010093E75046FFF7E4FCEA4A90
:104630001268D17AE84A526810786B463246FDF724
:1046400041FC10B14FF0FF3082E799FBF6F0401EBD
:104650008BF8000000202870B4422AD0DE48007C8D
:1046600000F0080028B3601C1DF800001DF80410BD
:1046700040EA012000B2A8F80000E01C1DF800107C
:10468000A01C1DF8000041EA002000B2A8F80200BA
:10469000601D1DF80010201D1DF8000041EA0020DB
:1046A00000B2A8F80400287840F008002870A01D87
:1046B00084B2B44213D0C848007C00F0400070B10E
:1046C000601C1DF800001DF8041040EA012000B233
:1046D0003880287840F040002870A01C84B2B44292
:1046E00013D0BD48007C00F0200070B1601C1DF8A4
:1046F00000001DF8041040EA012000B278802878FC
:1047000040F020002870A01C84B2B44213D0B248FC
:10471000007C00F0100070B1601C1DF800001DF856
:10472000041040EA012000B2B880287840F0100060
:104730002870A01C84B200200AE7F8B504460F4692
:104740001646A54890F8240010B94FF0FF30F8BD88
:10475000A148807A10B94FF0FF30F8E79E4A1268FE
:10476000917A9D4A526810786B460222FDF7AAFBA7
:1047700010B14FF0FF30EAE79DF801009DF80010FE
:1047800040EA0125A54203DA00203070401EDEE732
:10479000914840684088B5EB600F17DD8E4A12687B
:1047A000517C8D4A526810786B460122FDF78AFBD6
:1047B00010B14FF0FF30CAE79DF8000000F0100084
:1047C00020B1FFF7B5F86FF00100C0E7E2B2824B0D
:1047D0001B68D97A804B5B6818783B46FDF772FB03
:1047E00010B14FF0FF30B2E795FBF4F0401E30708F
:1047F0000020ACE70146784880F82210002070477E
:104800007CB5054674494968087801AB04220D213E
:10481000FDF758FB08B107207CBD9DF80700C0F3E9
:1048200001109DF8041001F0E00140EAE1008DF86C
:1048300000009DF80700C0F381009DF8051001F00D
:10484000E00140EAE1008DF801009DF8070000F06A
:1048500003009DF8061001F0E00140EAE1008DF848
:104860000200002427E01DF8040030B99FED5B0A28
:1048700005EB840080ED000A1BE09FED590A05EB73
:10488000840080ED000A0BE005EB840090ED000A47
:10489000DFED540A20EE200A05EB840080ED000ACB
:1048A0001DF80400401EC0B20DF804000028EBD132
:1048B00000BF601CC4B2032CD5DB0020ACE7F0B510
:1048C0002DED028B83B006460F4600256846FFF7A4
:1048D00097FF002447E056F8241057F82420881A40
:1048E000002801DB014600E0414200EE101AB8EE5C
:1048F000C00ADFED3D0A80EE208A684600EB8400A6
:1049000090ED000AB5EEC00AF1EE10FA18D0684634
:1049100000EB8400D0ED000A88EE200AF7EE000AD2
:1049200070EE608AB0EEE80A3048D0ED090AB4EEC5
:10493000E00AF1EE10FA15DD0120A040054311E078
:104940002A4890ED070AB4EEC80AF1EE10FA06DC28
:1049500090ED080AB4EEC80AF1EE10FA02D2012076
:10496000A0400543641C032CB5DB284603B0BDEC16
:10497000028BF0BDF0B52DED048B81B006460F46DD
:1049800000251549496808786B4603220D21FDF77B
:1049900099FA20B1072001B0BDEC048BF0BD9DF861
:1049A000000000F01F008DF800009DF8010000F0ED
:1049B0001F008DF801009DF8020000F01F008DF827
:1049C0000200002461E056F8241057F82420881AC9
:1049D00000280DDB01460CE0E00300200000000091
:1049E0007B14AE3E1D5A843F000080478CA5000812
:1049F000414200EE101AB8EEC00A5FED050A80EEE3
:104A0000208A1DF8040068B3FE4890ED000AB8EE55
:104A1000400ADFEDFD0A80EE801AF0EE418A05E0E3
:104A20009FEDFA0A28EE800AF0EE408A1DF8040095
:104A3000401EC0B20DF804000028F1D188EE280A0B
:104A4000F7EE000A30EE609AB0EEC90AED48D0EDFC
:104A5000060AB4EEE00AF1EE10FA15DD0120A040DE
:104A6000054311E0E74890ED040AB4EEC80AF1EE00
:104A700010FA06DC90ED050AB4EEC80AF1EE10FA61
:104A800002D20120A0400543641C032C9BDB284676
:104A900081E72DE9F04F87B005460C46914601208D
:104AA0008DF8100000208DF81100D94A1268917C11
:104AB000D74A5268107804AB0222FDF7A4F920B15E
:104AC0004FF0FF3007B0BDE8F08FC820FCF73EFF85
:104AD00000208DF81000CE4A1268D17BCC4A526873
:104AE000107804AB0122FDF78EF910B14FF0FF30C2
:104AF000E8E7C74A12685179C54A5268107804AB92
:104B00000122FDF780F910B14FF0FF30DAE7C04A1B
:104B10001268917CBE4A5268107804AB0122FDF7FE
:104B200072F910B14FF0FF30CCE7B94A1268D17D6D
:104B3000B74A5268107804AB0122FDF764F910B14E
:104B40004FF0FF30BEE7B24A12681179B04A52689E
:104B5000107804AB0122FDF756F910B14FF0FF3089
:104B6000B0E70C208DF81000A94A12681179A84A04
:104B70005268107804AB0122FDF745F910B14FF0EF
:104B8000FF309FE70F20FCF7E1FEA148806A407AE2
:104B90008DF810009E4A126891789D4A52681078EC
:104BA00004AB0122FDF72FF910B14FF0FF3089E778
:104BB0009748806A007A8DF81000954A12685178FB
:104BC000934A5268107804AB0122FDF71CF910B12A
:104BD0004FF0FF3076E7B9F1000F07D08C48806ABC
:104BE000807A40F0E0008DF8100004E08848806A88
:104BF000807A8DF81000864A12689179844A52684A
:104C0000107804AB0122FDF7FEF810B14FF0FF3031
:104C100058E7B9F1000F07D07D48806AC07A40F0AC
:104C2000E0008DF8100003E07648C07A8DF810009F
:104C3000774A1268D179764A5268107804AB01221B
:104C4000FDF7E1F810B14FF0FF303BE7B9F1000F8D
:104C500002D0C820FCF77AFE40208DF810006C4A84
:104C6000126811796A4A5268107804AB0122FDF784
:104C7000CAF810B14FF0FF3024E778208DF810000B
:104C8000634A12685179624A5268107804AB012273
:104C9000FDF7B9F810B14FF0FF3013E75949888993
:104CA000FCF754FE00208DF81000594A1268517923
:104CB000574A5268107804AB0122FDF7A4F810B1EE
:104CC0004FF0FF30FEE6524A1268917A504A52681D
:104CD000107804AB0222FDF7F5F810B14FF0FF3069
:104CE000F0E69DF811009DF8101040EA012B0C2011
:104CF0009BFBF0F0C6B20020A86068602860A0604E
:104D000060602060824665E0414A1268D17A404A7C
:104D10005268107804AB0C22FDF7D4F810B14FF0B4
:104D2000FF30CFE69DF811009DF8101040EA0120F9
:104D300000B2ADF808009DF813009DF8121040EA8B
:104D4000012000B2ADF80A009DF815009DF814107E
:104D500040EA012000B2ADF80C00BDF9081020684F
:104D600008442060BDF90A10606808446060BDF91D
:104D70000C10A0680844A0609DF817009DF816105C
:104D800040EA012000B2ADF800009DF819009DF83E
:104D9000181040EA012000B2ADF802009DF81B0097
:104DA0009DF81A1040EA012000B2ADF80400BDF9E8
:104DB0000010286808442860BDF90210686808449B
:104DC0006860BDF90410A8680844A8600AF10100F1
:104DD00000F0FF0AB24597DB0A48D0F800C0286807
:104DE000C117090441EA104107046246002338460E
:104DF00002F097FA32460023CDE9020102F091FA5F
:104E0000286007E08CA5000800B04C4554E3853FBE
:104E1000E0030020F848D0F800C06868C117090412
:104E200041EA1041070462460023384602F079FA4D
:104E300032460023CDE9020102F073FA6860EE48C1
:104E4000D0F800C0A868C117090441EA104107045E
:104E500062460023384602F064FA32460023CDE968
:104E6000020102F05EFAA860E348D0F804C02168AD
:104E7000C817000440EA11480F0462460023384670
:104E8000414602F04EFA32460023CDE9020102F01B
:104E900048FA2060D848D0F804C06068C1170904F7
:104EA00041EA1041070462460023384602F039FA0D
:104EB00032460023CDE9020102F033FA6060CE48A9
:104EC000D0F804C0A068C117090441EA10410704E2
:104ED00062460023384602F024FA32460023CDE928
:104EE000020102F01EFAA060A068002804DDA0689C
:104EF000A0F58030A06003E0A06800F58030A060DD
:104F00000020DFE538B50446BC4890F82400A042F4
:104F100001D1002038BD24B3B84890F8250010B95D
:104F20004FF0FF30F6E70020FEF73CFB0020FEF7D5
:104F30005BFCB249C88CFEF7BEFE00200090AF4972
:104F4000496808786B4601222321FCF75CFF0121A8
:104F5000AA4880F824100120FEF724FBFEF7E8FCA5
:104F600013E00020FEF71EFBA448007C0090A3493C
:104F7000496808786B4601222321FCF744FF002191
:104F80009E4880F82410FEF7D3FC0020C2E72DE9EC
:104F9000F04F8DB083460F4602200C90974890F852
:104FA000240020B10020FFF7ADFF012600E000261D
:104FB00003A8FFF7C2F905A8FFF7DFF901A8FFF77B
:104FC00000FA02A8FFF722FA8C4890F80AA004A879
:104FD000FFF77EFA002407E0002239465846FFF723
:104FE00058FD00B902E0641C022CF5DB00BF022C66
:104FF00001D1002528E0002407E0012206A909A824
:10500000FFF747FD00B902E0641C022CF5DB00BF8E
:10501000022C01D1002517E006A93846FFF74FFC06
:1050200000F0FF0809A95846FFF7A4FC00F0FF09AB
:105030000025B9F1000F01D145F00105B8F1000FCD
:1050400001D145F0020500BFFF206C490872FF2125
:105050006A484172C1724FF6FF71C181FF218172AE
:10506000017401210173BDF80C00FEF7B1FE9DF83B
:105070001400FEF76CFEBDF80400FEF76CFDBDF8F1
:105080000800FEF718FE5046FEF749FB9DF8100099
:10509000FEF72CFD16B10120FFF734FF28460DB0B6
:1050A000BDE8F08FF8B504460D46164616B94FF028
:1050B000FF30F8BD5148807A10B94FF0FF30F8E763
:1050C00020128DF80000E0B28DF801009DF801007B
:1050D00028444A4949684989884202DD4FF0FF3037
:1050E000E7E7464A1268117E444A526810786B46D8
:1050F0000222FCF788FE10B14FF0FF30D9E7EAB288
:105100003E4B1B68597D3D4B5B6818783346FCF776
:105110007AFE10B14FF0FF30CBE70020C9E7F8B5B9
:1051200004460D46164616B94FF0FF30F8BD334819
:10513000807A10B94FF0FF30F8E720128DF80000A8
:10514000E0B28DF801009DF8010028442B49496820
:105150004989884202DD4FF0FF30E7E7274A1268AD
:10516000117E264A526810786B460222FCF74BFEED
:1051700010B14FF0FF30D9E7EAB2204B1B68597DE0
:105180001E4B5B6818783346FCF79CFE10B14FF05D
:10519000FF30CBE70020C9E72DE9F04385B0054695
:1051A0000E4690469946154890F8250020B14FF0DC
:1051B000FF3005B0BDE8F08316B94FF0FF30F8E7D7
:1051C000002428E0281B102801DD102000E0281B07
:1051D00087B2321939462046FFF764FF10B14FF00D
:1051E000FF30E6E701AA39462046FFF798FF38B1BD
:1051F0004FF0FF30DDE700008CA50008E003002041
:1052000030193A4601A902F02DF910B16FF00100F2
:10521000CFE7E01984B2AC42D4DB4FEA28208DF806
:10522000000008F0FF008DF80100924A1268917E9C
:10523000904A526810786B460222FCF7E4FD10B1E8
:105240004FF0FF30B5E701218A4880F82510A0F81B
:1052500026900020ADE70146864890F824000870AB
:105260000020704702464FF0FF30704701464FF074
:10527000FF307047F8B505460F461446002C70D035
:10528000B5F5FF5F01DDFF2605E0202D01DA0126DF
:1052900001E0C5F3471607B90127282C02DD4FF0BE
:1052A000FF30F8BD7348407D28BB724890F8240059
:1052B00038B10020FFF726FE01216E4880F820104B
:1052C00003E000216B4880F820106A481630FFF791
:1052D00034F868481830FFF750F866481A30FFF77E
:1052E00070F864481C30FFF791F86248817A817742
:1052F0001F30FFF7EDF80020FEF754F90020FEF70D
:105300006DFC00208DF800005A4A12689178594AC5
:10531000526810786B460122FCF775FD10B14FF012
:10532000FF30BEE740208DF80000524A1268D17B62
:10533000504A526810786B460122FCF764FD00B1B8
:1053400065E08DF800608DF801704A4A1268117AA4
:10535000484A526810786B460222FCF754FD08B1A7
:1053600055E047E00520FCF7F1FA4248407A072172
:1053700001EBC000C0B28DF800003E4A1268D1793E
:105380003C4A526810786B460122FCF73CFD00B1A4
:105390003DE020208DF80000012C03D100208DF885
:1053A00001000EE0052C03DC01208DF8010008E06F
:1053B000142C03DC02208DF8010002E003208DF89C
:1053C00001009DF80100072101EB8010C0B28DF8AB
:1053D0000100284A1268917C264A526810786B4670
:1053E0000222FCF710FD00B111E0012121484175B6
:1053F000002056E71F4A1632002103E0505C00B13E
:1054000005E0491C0C29F9D34FF0FF3049E7FF2094
:1054100018490872FF2117484172C1724FF6FF7197
:10542000C181FF2181720174012101730146887FCE
:10543000FEF775F90F49C88AFEF7CAFC0D49087EC8
:10544000FEF785FC0B49488BFEF785FB0949888BE5
:10545000FEF731FC0749C87FFEF748FB054890F886
:10546000200010B10120FFF74DFD002101484175DA
:10547000002016E7E003002010B54FF47A734FF4D4
:105480008062F74940F6F630FFF786FE10BD10B592
:1054900086B00446F3A000680390F3A00068029071
:1054A000F2A000680190F2A00068009004F00300F0
:1054B00003A9085C8DF8140003A8C4F3C101405C83
:1054C0008DF8150003A8C4F38111405C8DF8160017
:1054D00004F0030002A9085C8DF8100002A8C4F3D0
:1054E000C101405C8DF8110002A8C4F38111405C39
:1054F0008DF8120005AA032140F22640FFF7D2FDE5
:1055000018B14FF0FF3006B010BD04AA032140F2DD
:105510002A40FFF7C7FD10B14FF0FF30F3E70198C5
:1055200005900098049004F0040058B19DF8140010
:1055300040F001008DF814009DF8100040F00100CB
:105540008DF8100004F0200058B19DF8150040F0CF
:1055500001008DF815009DF8110040F001008DF854
:10556000110004F4807058B19DF8160040F001005D
:105570008DF816009DF8120040F001008DF8120021
:1055800005AA03214FF48860FFF78CFD10B14FF09E
:10559000FF30B8E704AA032140F23140FFF782FD53
:1055A00010B14FF0FF30AEE7B24804810020AAE707
:1055B0001FB50446AF48007A00F0030054F82000FD
:1055C0000190AC48007A00F0040010B1019840420C
:1055D0000190A848007AC0F3C10054F8200002905E
:1055E000A448007A00F0200010B1029840420290D6
:1055F000A048007AC0F3811054F8200003909D4821
:10560000008900F4807010B10398404203909A49D9
:10561000019880FB0101800F40EA810001909649CA
:10562000029880FB0110820042EA91700290924938
:10563000039880FB0110820042EA91700390019868
:10564000000E8DF800000198000C8DF80100019803
:10565000000A8DF802000198C0B28DF803006A4676
:1056600004214FF47470FFF71DFD18B14FF0FF30A7
:1056700004B010BD0298000E8DF800000298000CD6
:105680008DF801000298000A8DF802000298C0B25D
:105690008DF803006A4604214FF47570FFF702FD90
:1056A00010B14FF0FF30E3E70398000E8DF80000D3
:1056B0000398000C8DF801000398000A8DF8020091
:1056C0000398C0B28DF803006A4604214FF4767047
:1056D000FFF7E8FCCCE770B588B0064601A8FEF7F6
:1056E000D0FEBDF804000021C90341EA5045C403BF
:1056F0006048007A00F0030056F8200005905D48ED
:10570000007A00F0040010B1059840420590594815
:10571000007AC0F3C10056F8200006905548007A80
:1057200000F0200010B10698404206905148007ADF
:10573000C0F3811056F8200007904E48008900F40D
:10574000807010B10798404207900598C117A0FBE0
:10575000042301FB043100FB0510810041EA927033
:1057600005900698C117A0FB042301FB043100FB40
:105770000510810041EA927006900798C117A0FBBE
:10578000042301FB043100FB0510810041EA927003
:1057900007900598000E8DF808000598000C8DF80C
:1057A00009000598000A8DF80A000598C0B28DF826
:1057B0000B000698000E8DF80C000698000C8DF872
:1057C0000D000698000A8DF80E000698C0B28DF8FC
:1057D0000F000798000E8DF810000798000C8DF848
:1057E00011000798000A8DF812000798C0B28DF8D2
:1057F000130002AA0C214FF42570FFF753FC08B0E8
:1058000070BD30B585B004461CA207CA02AB07C301
:10581000B4F57A7F03DD4FF0FF3005B030BD4FF4B3
:105820007A7090FBF4F0401E85B2280A8DF80000D3
:10583000E8B28DF801006A46022140F21620FFF717
:1058400031FC10B14FF0FF30E7E702AA0C2140F61F
:10585000C120FFF727FCB8B14FF0FF30DDE70000B3
:10586000B4A500084CCD6C000CC92C00365676004F
:10587000264666006807002035FA8E00FEF2ABC4AB
:10588000AAF1DFDFBBAFDFDFFC4884810020C4E783
:105890000146FA488089088000207047F0B52DED58
:1058A000028B83B006460F4606F0070010B1B7F52D
:1058B000C86F05DD4FF0FF3003B0BDEC028BF0BDCB
:1058C00000EE107AB8EE400ADFEDED0A80EE208A95
:1058D00001A8FEF752FD9DF80400022806D0042816
:1058E00017D0082828D010284CD138E09FEDE50AC1
:1058F00028EE000ABCEEC00A10EE100A84B29FED3A
:10590000E20A28EE000ABCEEC00A10EE100A85B2C8
:105910003BE09FEDDE0A28EE000ABCEEC00A10EE66
:10592000100A84B29FEDDA0A28EE000ABCEEC00A23
:1059300010EE100A85B228E09FEDD60A28EE000A84
:10594000BCEEC00A10EE100A84B29FEDD30A28EE16
:10595000000ABCEEC00A10EE100A85B215E09FEDF9
:10596000CF0A28EE000ABCEEC00A10EE100A84B27C
:105970009FEDCB0A28EE000ABCEEC00A10EE100A1A
:1059800085B202E04FF0FF3096E700BF20128DF89D
:105990000800E0B28DF8090028128DF80A00E8B27C
:1059A0008DF80B0006F00100A0B102AA02214FF40D
:1059B000EA70FFF777FB10B14FF0FF307CE70DF195
:1059C0000A0202214FF49270FFF76CFB10B14FF006
:1059D000FF3071E706F00200A0B102AA02214FF4E5
:1059E000EC70FFF75FFB10B14FF0FF3064E70DF193
:1059F0000A0202214FF49470FFF754FB10B14FF0EC
:105A0000FF3059E706F00400A0B102AA02214FF4CA
:105A1000EE70FFF747FB10B14FF0FF304CE70DF190
:105A20000A0202214FF49670FFF73CFB10B14FF0D1
:105A3000FF3041E700203FE738B5044600200090E2
:105A400004F0010020B19DF8000040F0300000900B
:105A500004F0020020B19DF8000040F00C0000901E
:105A600004F0040020B19DF8000040F00300009015
:105A70006A4601214FF4A470FFF714FB38BD38B516
:105A80000446012C01DA012402E0042C00DD042488
:105A9000601EC0B200906A46012140F24F10FFF72D
:105AA00001FB38BD38B50446A5B228128DF80000B8
:105AB000E8B28DF801006A4602214FF4EF70FFF75B
:105AC000F1FA38BD38B50446A5B228128DF80000A9
:105AD000E8B28DF801006A4602214FF4ED70FFF73D
